:100000000C9446000C9458000C9458000C94580022
:100010000C9458000C9458000C9458000C94580000
:100020000C9458000C9458000C9458000C945800F0
:100030000C9458000C9458000C9458000C945800E0
:100040000C9458000C9458000C9458000C945800D0
:100050000C9458000C9458000C9458000C945800C0
:100060000C9458000C9458000C9458000C945800B0
:100070000C9458000C9458000C9458000C945800A0
:100080000C9458000C9458000C94580011241FBE76
:10009000CFEFD0E4DEBFCDBF11E0A0E0B1E001C002
:1000A0001D92A430B107E1F70E94EF000C94FB0011
:1000B0000C9400008091020190910301823091051F
:1000C000D9F028F4009751F0019779F059C08430A5
:1000D000910549F108F10597B1F152C085E090E032
:1000E000909303018093020151C082E090E09093CD
:1000F0000301809302014AC0009B07C085E090E0A5
:10010000909303018093020141C082E090E09093BC
:100110000301809302013AC084E090E090930301D0
:100120008093020133C0009B07C085E090E090936C
:100130000301809302012AC084E090E090930301C0
:100140008093020123C0009907C081E090E0909362
:100150000301809302011AC000990BC08091000135
:10016000882339F083E090E09093030180930201AB
:100170000DC085E090E0909303018093020106C0DA
:1001800085E090E090930301809302018091020149
:10019000909103018130910519F0039761F014C02B
:1001A000809101018F5F80930101853069F481E0C6
:1001B0008093000109C08091010181508093010169
:1001C000811102C01092000181E090E000900101D5
:1001D00002C0880F991F0A94E2F788B9089511B8F0
:1001E0008FEF82B987B918B81092030110920201FB
:0A01F0000E945A00FDCFF894FFCFE3
:00000001FF
