:100000000C9446000C9458000C9458000C94580022
:100010000C9458000C9458000C9458000C94580000
:100020000C9458000C9458000C9458000C945800F0
:100030000C9458000C9458000C9458000C945800E0
:100040000C9458000C9458000C9458000C945800D0
:100050000C9458000C9458000C9458000C945800C0
:100060000C9458000C9458000C9458000C945800B0
:100070000C9458000C9458000C9458000C945800A0
:100080000C9458000C9458000C94580011241FBE76
:10009000CFEFD0E4DEBFCDBF11E0A0E0B1E001C002
:1000A0001D92A330B107E1F70E94D0000C94DC0050
:1000B0000C94000080910101909102018130910522
:1000C00059F018F0029781F017C082E090E0909309
:1000D00002018093010116C080B181E090E090930D
:1000E0000201809301010EC080B182E090E0909304
:1000F00002018093010106C082E090E0909302012A
:10010000809301018091010190910201813091055C
:1001100019F0029719F1089580910001811103C02F
:1001200081E088B90895813019F482E088B9089592
:10013000823019F484E088B90895833019F488E096
:1001400088B90895843019F480E188B9089585301C
:1001500019F480E288B9089518B8089580910001D3
:10016000811103C081E088B90895813019F482E0DB
:1001700088B90895823019F483E088B908958330EE
:1001800019F484E088B90895843019F485E088B9B9
:100190000895853019F486E088B9089518B808954F
:1001A00011B88FEF82B987B918B810920201109276
:0C01B00001010E945A00FDCFF894FFCF1F
:00000001FF
