:100000000C944D000C945F000C945F000C945F0006
:100010000C945F000C945F000C945F000C945F00E4
:100020000C945F000C945F000C945F000C945F00D4
:100030000C945F000C945F000C945F000C945F00C4
:100040000C945F000C945F000C945F000C945F00B4
:100050000C945F000C945F000C945F000C945F00A4
:100060000C945F000C945F000C945F000C945F0094
:100070000C945F000C945F000C945F000C945F0084
:100080000C945F000C945F000C945F006D00740092
:100090007B008B009200A200BF0011241FBECFEF97
:1000A000D0E4DEBFCDBF11E0A0E0B1E001C01D9201
:1000B000A430B107E1F70E94F5000C940A010C94FA
:1000C0000000E0910201F0910301E730F10508F032
:1000D0005DC0EA5BFF4F0C94010185E090E09093D6
:1000E00003018093020158C082E090E090930301E5
:1000F0008093020151C0009B07C085E090E090937F
:1001000003018093020148C082E090E090930301D4
:100110008093020141C084E090E0909303018093BA
:1001200002013AC0009B07C085E090E09093030174
:100130008093020131C084E090E0909303018093AA
:1001400002012AC0009907C081E090E0909303016A
:100150008093020121C000990BC080910001882387
:1001600039F083E090E0909303018093020114C082
:1001700085E090E090930301809302010DC085E03B
:1001800090E0909303018093020106C085E090E027
:1001900090930301809302018091020190910301E9
:1001A0008130910519F0039761F014C0809101012D
:1001B0008F5F80930101873069F481E080930001B3
:1001C00009C080910101815080930101811102C019
:1001D0001092000181E090E00090010102C0880FC0
:1001E000991F0A94E2F788B9089511B88FEF82B980
:1001F00087B918B810920301109202010E946100A1
:10020000FDCFEE0FFF1F0024001C0BBE0790F691E0
:08021000E02D0994F894FFCFE2
:00000001FF
